{
  "abi": [
    {
      "inputs": [
        {
          "internalType": "contract IERC20Metadata",
          "name": "_asset",
          "type": "address"
        },
        {
          "internalType": "address",
          "name": "_performanceFeeRecipient",
          "type": "address"
        },
        {
          "internalType": "uint16",
          "name": "_performanceFee",
          "type": "uint16"
        }
      ],
      "stateMutability": "nonpayable",
      "type": "constructor"
    },
    {
      "inputs": [],
      "name": "InvalidAmount",
      "type": "error"
    },
    {
      "inputs": [],
      "name": "InvalidFee",
      "type": "error"
    },
    {
      "inputs": [],
      "name": "InvalidStrategy",
      "type": "error"
    },
    {
      "inputs": [],
      "name": "NotEnoughDelayHasPassed",
      "type": "error"
    },
    {
      "inputs": [],
      "name": "OnlyPauserOrOwner",
      "type": "error"
    },
    {
      "anonymous": false,
      "inputs": [
        {
          "indexed": true,
          "internalType": "address",
          "name": "strategy",
          "type": "address"
        }
      ],
      "name": "AddStrategy",
      "type": "event"
    },
    {
      "anonymous": false,
      "inputs": [
        {
          "indexed": true,
          "internalType": "address",
          "name": "owner",
          "type": "address"
        },
        {
          "indexed": true,
          "internalType": "address",
          "name": "spender",
          "type": "address"
        },
        {
          "indexed": false,
          "internalType": "uint256",
          "name": "value",
          "type": "uint256"
        }
      ],
      "name": "Approval",
      "type": "event"
    },
    {
      "anonymous": false,
      "inputs": [
        {
          "indexed": true,
          "internalType": "address",
          "name": "sender",
          "type": "address"
        },
        {
          "indexed": true,
          "internalType": "address",
          "name": "owner",
          "type": "address"
        },
        {
          "indexed": false,
          "internalType": "uint256",
          "name": "assets",
          "type": "uint256"
        },
        {
          "indexed": false,
          "internalType": "uint256",
          "name": "shares",
          "type": "uint256"
        }
      ],
      "name": "Deposit",
      "type": "event"
    },
    {
      "anonymous": false,
      "inputs": [
        {
          "indexed": true,
          "internalType": "address",
          "name": "to",
          "type": "address"
        },
        {
          "indexed": false,
          "internalType": "uint256",
          "name": "amount",
          "type": "uint256"
        }
      ],
      "name": "GrantPerformanceFees",
      "type": "event"
    },
    {
      "anonymous": false,
      "inputs": [
        {
          "indexed": false,
          "internalType": "uint256",
          "name": "amount",
          "type": "uint256"
        }
      ],
      "name": "IncurLosses",
      "type": "event"
    },
    {
      "anonymous": false,
      "inputs": [
        {
          "indexed": false,
          "internalType": "address",
          "name": "who",
          "type": "address"
        }
      ],
      "name": "NewPauser",
      "type": "event"
    },
    {
      "anonymous": false,
      "inputs": [
        {
          "indexed": true,
          "internalType": "address",
          "name": "previousOwner",
          "type": "address"
        },
        {
          "indexed": true,
          "internalType": "address",
          "name": "newOwner",
          "type": "address"
        }
      ],
      "name": "OwnershipTransferred",
      "type": "event"
    },
    {
      "anonymous": false,
      "inputs": [
        {
          "indexed": false,
          "internalType": "address",
          "name": "account",
          "type": "address"
        }
      ],
      "name": "Paused",
      "type": "event"
    },
    {
      "anonymous": false,
      "inputs": [
        {
          "indexed": true,
          "internalType": "address",
          "name": "strategy",
          "type": "address"
        }
      ],
      "name": "RemoveStrategy",
      "type": "event"
    },
    {
      "anonymous": false,
      "inputs": [
        {
          "indexed": false,
          "internalType": "uint256",
          "name": "amount",
          "type": "uint256"
        }
      ],
      "name": "RepayLosses",
      "type": "event"
    },
    {
      "anonymous": false,
      "inputs": [
        {
          "indexed": true,
          "internalType": "address",
          "name": "strategy",
          "type": "address"
        },
        {
          "indexed": false,
          "internalType": "uint256",
          "name": "amount",
          "type": "uint256"
        }
      ],
      "name": "ReplenishAssets",
      "type": "event"
    },
    {
      "anonymous": false,
      "inputs": [
        {
          "indexed": true,
          "internalType": "address",
          "name": "strategy",
          "type": "address"
        },
        {
          "indexed": false,
          "internalType": "uint256",
          "name": "amount",
          "type": "uint256"
        }
      ],
      "name": "RequestAssets",
      "type": "event"
    },
    {
      "anonymous": false,
      "inputs": [
        {
          "indexed": false,
          "internalType": "address",
          "name": "who",
          "type": "address"
        }
      ],
      "name": "RevokePauser",
      "type": "event"
    },
    {
      "anonymous": false,
      "inputs": [
        {
          "indexed": false,
          "internalType": "uint16",
          "name": "fee",
          "type": "uint16"
        }
      ],
      "name": "SetPerformanceFee",
      "type": "event"
    },
    {
      "anonymous": false,
      "inputs": [
        {
          "indexed": false,
          "internalType": "address",
          "name": "who",
          "type": "address"
        }
      ],
      "name": "SetPerformanceFeeRecipient",
      "type": "event"
    },
    {
      "anonymous": false,
      "inputs": [
        {
          "indexed": true,
          "internalType": "address",
          "name": "from",
          "type": "address"
        },
        {
          "indexed": true,
          "internalType": "address",
          "name": "to",
          "type": "address"
        },
        {
          "indexed": false,
          "internalType": "uint256",
          "name": "value",
          "type": "uint256"
        }
      ],
      "name": "Transfer",
      "type": "event"
    },
    {
      "anonymous": false,
      "inputs": [
        {
          "indexed": false,
          "internalType": "address",
          "name": "account",
          "type": "address"
        }
      ],
      "name": "Unpaused",
      "type": "event"
    },
    {
      "anonymous": false,
      "inputs": [
        {
          "indexed": true,
          "internalType": "address",
          "name": "sender",
          "type": "address"
        },
        {
          "indexed": true,
          "internalType": "address",
          "name": "receiver",
          "type": "address"
        },
        {
          "indexed": true,
          "internalType": "address",
          "name": "owner",
          "type": "address"
        },
        {
          "indexed": false,
          "internalType": "uint256",
          "name": "assets",
          "type": "uint256"
        },
        {
          "indexed": false,
          "internalType": "uint256",
          "name": "shares",
          "type": "uint256"
        }
      ],
      "name": "Withdraw",
      "type": "event"
    },
    {
      "inputs": [
        {
          "internalType": "address",
          "name": "_strategy",
          "type": "address"
        }
      ],
      "name": "addStrategy",
      "outputs": [],
      "stateMutability": "nonpayable",
      "type": "function"
    },
    {
      "inputs": [
        {
          "internalType": "uint16",
          "name": "_newFee",
          "type": "uint16"
        }
      ],
      "name": "adjustPerformanceFee",
      "outputs": [],
      "stateMutability": "nonpayable",
      "type": "function"
    },
    {
      "inputs": [
        {
          "internalType": "address",
          "name": "owner",
          "type": "address"
        },
        {
          "internalType": "address",
          "name": "spender",
          "type": "address"
        }
      ],
      "name": "allowance",
      "outputs": [
        {
          "internalType": "uint256",
          "name": "",
          "type": "uint256"
        }
      ],
      "stateMutability": "view",
      "type": "function"
    },
    {
      "inputs": [
        {
          "internalType": "address",
          "name": "spender",
          "type": "address"
        },
        {
          "internalType": "uint256",
          "name": "amount",
          "type": "uint256"
        }
      ],
      "name": "approve",
      "outputs": [
        {
          "internalType": "bool",
          "name": "",
          "type": "bool"
        }
      ],
      "stateMutability": "nonpayable",
      "type": "function"
    },
    {
      "inputs": [],
      "name": "asset",
      "outputs": [
        {
          "internalType": "address",
          "name": "",
          "type": "address"
        }
      ],
      "stateMutability": "view",
      "type": "function"
    },
    {
      "inputs": [
        {
          "internalType": "address",
          "name": "account",
          "type": "address"
        }
      ],
      "name": "balanceOf",
      "outputs": [
        {
          "internalType": "uint256",
          "name": "",
          "type": "uint256"
        }
      ],
      "stateMutability": "view",
      "type": "function"
    },
    {
      "inputs": [
        {
          "internalType": "uint256",
          "name": "shares",
          "type": "uint256"
        }
      ],
      "name": "convertToAssets",
      "outputs": [
        {
          "internalType": "uint256",
          "name": "",
          "type": "uint256"
        }
      ],
      "stateMutability": "view",
      "type": "function"
    },
    {
      "inputs": [
        {
          "internalType": "uint256",
          "name": "assets",
          "type": "uint256"
        }
      ],
      "name": "convertToShares",
      "outputs": [
        {
          "internalType": "uint256",
          "name": "",
          "type": "uint256"
        }
      ],
      "stateMutability": "view",
      "type": "function"
    },
    {
      "inputs": [],
      "name": "decimals",
      "outputs": [
        {
          "internalType": "uint8",
          "name": "",
          "type": "uint8"
        }
      ],
      "stateMutability": "view",
      "type": "function"
    },
    {
      "inputs": [
        {
          "internalType": "address",
          "name": "spender",
          "type": "address"
        },
        {
          "internalType": "uint256",
          "name": "subtractedValue",
          "type": "uint256"
        }
      ],
      "name": "decreaseAllowance",
      "outputs": [
        {
          "internalType": "bool",
          "name": "",
          "type": "bool"
        }
      ],
      "stateMutability": "nonpayable",
      "type": "function"
    },
    {
      "inputs": [
        {
          "internalType": "uint256",
          "name": "_assets",
          "type": "uint256"
        },
        {
          "internalType": "address",
          "name": "_receiver",
          "type": "address"
        }
      ],
      "name": "deposit",
      "outputs": [
        {
          "internalType": "uint256",
          "name": "shares",
          "type": "uint256"
        }
      ],
      "stateMutability": "nonpayable",
      "type": "function"
    },
    {
      "inputs": [
        {
          "internalType": "address",
          "name": "to",
          "type": "address"
        }
      ],
      "name": "grantPausingRole",
      "outputs": [],
      "stateMutability": "nonpayable",
      "type": "function"
    },
    {
      "inputs": [
        {
          "internalType": "address",
          "name": "spender",
          "type": "address"
        },
        {
          "internalType": "uint256",
          "name": "addedValue",
          "type": "uint256"
        }
      ],
      "name": "increaseAllowance",
      "outputs": [
        {
          "internalType": "bool",
          "name": "",
          "type": "bool"
        }
      ],
      "stateMutability": "nonpayable",
      "type": "function"
    },
    {
      "inputs": [],
      "name": "incurredLosses",
      "outputs": [
        {
          "internalType": "uint256",
          "name": "",
          "type": "uint256"
        }
      ],
      "stateMutability": "view",
      "type": "function"
    },
    {
      "inputs": [
        {
          "internalType": "address",
          "name": "who",
          "type": "address"
        }
      ],
      "name": "isPauser",
      "outputs": [
        {
          "internalType": "bool",
          "name": "",
          "type": "bool"
        }
      ],
      "stateMutability": "view",
      "type": "function"
    },
    {
      "inputs": [
        {
          "internalType": "address",
          "name": "potentialStrategy",
          "type": "address"
        }
      ],
      "name": "isStrategyApproved",
      "outputs": [
        {
          "internalType": "bool",
          "name": "isApproved",
          "type": "bool"
        },
        {
          "internalType": "uint256",
          "name": "timestampWhenApproved",
          "type": "uint256"
        }
      ],
      "stateMutability": "view",
      "type": "function"
    },
    {
      "inputs": [
        {
          "internalType": "address",
          "name": "",
          "type": "address"
        }
      ],
      "name": "maxDeposit",
      "outputs": [
        {
          "internalType": "uint256",
          "name": "",
          "type": "uint256"
        }
      ],
      "stateMutability": "view",
      "type": "function"
    },
    {
      "inputs": [
        {
          "internalType": "address",
          "name": "",
          "type": "address"
        }
      ],
      "name": "maxMint",
      "outputs": [
        {
          "internalType": "uint256",
          "name": "",
          "type": "uint256"
        }
      ],
      "stateMutability": "view",
      "type": "function"
    },
    {
      "inputs": [
        {
          "internalType": "address",
          "name": "owner",
          "type": "address"
        }
      ],
      "name": "maxRedeem",
      "outputs": [
        {
          "internalType": "uint256",
          "name": "",
          "type": "uint256"
        }
      ],
      "stateMutability": "view",
      "type": "function"
    },
    {
      "inputs": [
        {
          "internalType": "address",
          "name": "_owner",
          "type": "address"
        }
      ],
      "name": "maxWithdraw",
      "outputs": [
        {
          "internalType": "uint256",
          "name": "",
          "type": "uint256"
        }
      ],
      "stateMutability": "view",
      "type": "function"
    },
    {
      "inputs": [
        {
          "internalType": "uint256",
          "name": "_shares",
          "type": "uint256"
        },
        {
          "internalType": "address",
          "name": "_receiver",
          "type": "address"
        }
      ],
      "name": "mint",
      "outputs": [
        {
          "internalType": "uint256",
          "name": "assets",
          "type": "uint256"
        }
      ],
      "stateMutability": "nonpayable",
      "type": "function"
    },
    {
      "inputs": [],
      "name": "name",
      "outputs": [
        {
          "internalType": "string",
          "name": "",
          "type": "string"
        }
      ],
      "stateMutability": "view",
      "type": "function"
    },
    {
      "inputs": [],
      "name": "owner",
      "outputs": [
        {
          "internalType": "address",
          "name": "",
          "type": "address"
        }
      ],
      "stateMutability": "view",
      "type": "function"
    },
    {
      "inputs": [],
      "name": "pause",
      "outputs": [],
      "stateMutability": "nonpayable",
      "type": "function"
    },
    {
      "inputs": [],
      "name": "paused",
      "outputs": [
        {
          "internalType": "bool",
          "name": "",
          "type": "bool"
        }
      ],
      "stateMutability": "view",
      "type": "function"
    },
    {
      "inputs": [],
      "name": "performanceFee",
      "outputs": [
        {
          "internalType": "uint16",
          "name": "",
          "type": "uint16"
        }
      ],
      "stateMutability": "view",
      "type": "function"
    },
    {
      "inputs": [],
      "name": "performanceFeeRecipient",
      "outputs": [
        {
          "internalType": "address",
          "name": "",
          "type": "address"
        }
      ],
      "stateMutability": "view",
      "type": "function"
    },
    {
      "inputs": [
        {
          "internalType": "uint256",
          "name": "assets",
          "type": "uint256"
        }
      ],
      "name": "previewDeposit",
      "outputs": [
        {
          "internalType": "uint256",
          "name": "",
          "type": "uint256"
        }
      ],
      "stateMutability": "view",
      "type": "function"
    },
    {
      "inputs": [
        {
          "internalType": "uint256",
          "name": "shares",
          "type": "uint256"
        }
      ],
      "name": "previewMint",
      "outputs": [
        {
          "internalType": "uint256",
          "name": "",
          "type": "uint256"
        }
      ],
      "stateMutability": "view",
      "type": "function"
    },
    {
      "inputs": [
        {
          "internalType": "uint256",
          "name": "shares",
          "type": "uint256"
        }
      ],
      "name": "previewRedeem",
      "outputs": [
        {
          "internalType": "uint256",
          "name": "",
          "type": "uint256"
        }
      ],
      "stateMutability": "view",
      "type": "function"
    },
    {
      "inputs": [
        {
          "internalType": "uint256",
          "name": "assets",
          "type": "uint256"
        }
      ],
      "name": "previewWithdraw",
      "outputs": [
        {
          "internalType": "uint256",
          "name": "",
          "type": "uint256"
        }
      ],
      "stateMutability": "view",
      "type": "function"
    },
    {
      "inputs": [
        {
          "internalType": "uint256",
          "name": "shares",
          "type": "uint256"
        },
        {
          "internalType": "address",
          "name": "receiver",
          "type": "address"
        },
        {
          "internalType": "address",
          "name": "owner",
          "type": "address"
        }
      ],
      "name": "redeem",
      "outputs": [
        {
          "internalType": "uint256",
          "name": "assets",
          "type": "uint256"
        }
      ],
      "stateMutability": "nonpayable",
      "type": "function"
    },
    {
      "inputs": [
        {
          "internalType": "address",
          "name": "_strategy",
          "type": "address"
        }
      ],
      "name": "removeStrategy",
      "outputs": [],
      "stateMutability": "nonpayable",
      "type": "function"
    },
    {
      "inputs": [],
      "name": "renounceOwnership",
      "outputs": [],
      "stateMutability": "nonpayable",
      "type": "function"
    },
    {
      "inputs": [
        {
          "internalType": "uint256",
          "name": "_amount",
          "type": "uint256"
        }
      ],
      "name": "replenishAssets",
      "outputs": [],
      "stateMutability": "nonpayable",
      "type": "function"
    },
    {
      "inputs": [
        {
          "internalType": "uint256",
          "name": "_amount",
          "type": "uint256"
        }
      ],
      "name": "requestAssets",
      "outputs": [],
      "stateMutability": "nonpayable",
      "type": "function"
    },
    {
      "inputs": [
        {
          "internalType": "address",
          "name": "to",
          "type": "address"
        }
      ],
      "name": "revokePausingRole",
      "outputs": [],
      "stateMutability": "nonpayable",
      "type": "function"
    },
    {
      "inputs": [
        {
          "internalType": "address",
          "name": "_recipient",
          "type": "address"
        }
      ],
      "name": "setPerformanceFeeRecipient",
      "outputs": [],
      "stateMutability": "nonpayable",
      "type": "function"
    },
    {
      "inputs": [],
      "name": "symbol",
      "outputs": [
        {
          "internalType": "string",
          "name": "",
          "type": "string"
        }
      ],
      "stateMutability": "view",
      "type": "function"
    },
    {
      "inputs": [],
      "name": "totalAssets",
      "outputs": [
        {
          "internalType": "uint256",
          "name": "",
          "type": "uint256"
        }
      ],
      "stateMutability": "view",
      "type": "function"
    },
    {
      "inputs": [],
      "name": "totalAssetsAllocatedInStrategies",
      "outputs": [
        {
          "internalType": "uint256",
          "name": "",
          "type": "uint256"
        }
      ],
      "stateMutability": "view",
      "type": "function"
    },
    {
      "inputs": [],
      "name": "totalSupply",
      "outputs": [
        {
          "internalType": "uint256",
          "name": "",
          "type": "uint256"
        }
      ],
      "stateMutability": "view",
      "type": "function"
    },
    {
      "inputs": [
        {
          "internalType": "address",
          "name": "to",
          "type": "address"
        },
        {
          "internalType": "uint256",
          "name": "amount",
          "type": "uint256"
        }
      ],
      "name": "transfer",
      "outputs": [
        {
          "internalType": "bool",
          "name": "",
          "type": "bool"
        }
      ],
      "stateMutability": "nonpayable",
      "type": "function"
    },
    {
      "inputs": [
        {
          "internalType": "address",
          "name": "from",
          "type": "address"
        },
        {
          "internalType": "address",
          "name": "to",
          "type": "address"
        },
        {
          "internalType": "uint256",
          "name": "amount",
          "type": "uint256"
        }
      ],
      "name": "transferFrom",
      "outputs": [
        {
          "internalType": "bool",
          "name": "",
          "type": "bool"
        }
      ],
      "stateMutability": "nonpayable",
      "type": "function"
    },
    {
      "inputs": [
        {
          "internalType": "address",
          "name": "newOwner",
          "type": "address"
        }
      ],
      "name": "transferOwnership",
      "outputs": [],
      "stateMutability": "nonpayable",
      "type": "function"
    },
    {
      "inputs": [],
      "name": "unpause",
      "outputs": [],
      "stateMutability": "nonpayable",
      "type": "function"
    },
    {
      "inputs": [
        {
          "internalType": "uint256",
          "name": "assets",
          "type": "uint256"
        },
        {
          "internalType": "address",
          "name": "receiver",
          "type": "address"
        },
        {
          "internalType": "address",
          "name": "owner",
          "type": "address"
        }
      ],
      "name": "withdraw",
      "outputs": [
        {
          "internalType": "uint256",
          "name": "shares",
          "type": "uint256"
        }
      ],
      "stateMutability": "nonpayable",
      "type": "function"
    },
    {
      "inputs": [
        {
          "internalType": "uint256",
          "name": "amount",
          "type": "uint256"
        }
      ],
      "name": "writeOffLosses",
      "outputs": [],
      "stateMutability": "nonpayable",
      "type": "function"
    }
  ],
  "bytecode": {
    "object": "0x60c06040523480156200001157600080fd5b5060405162002b4838038062002b488339810160408190526200003491620003c5565b82836001600160a01b03166306fdde036040518163ffffffff1660e01b8152600401600060405180830381865afa15801562000074573d6000803e3d6000fd5b505050506040513d6000823e601f3d908101601f191682016040526200009e91908101906200045b565b604051602001620000b0919062000513565b604051602081830303815290604052846001600160a01b03166395d89b416040518163ffffffff1660e01b8152600401600060405180830381865afa158015620000fe573d6000803e3d6000fd5b505050506040513d6000823e601f3d908101601f191682016040526200012891908101906200045b565b6040516020016200013a919062000562565b60408051601f1981840301815291905260036200015883826200061b565b5060046200016782826200061b565b5050506000806200017e836200027560201b60201c565b91509150816200019057601262000192565b805b60ff1660a05250506001600160a01b0316608052620001b1336200035a565b6005805460ff60a01b191690556040516001600160a01b03831681527fe59cc3d47f72dbd81f7d5fc40b9b05d9c4374a54addea771648ae24943c26e769060200160405180910390a1600880546001600160a01b0319166001600160a01b03841617905560405161ffff821681527f8e9d63fb76e0218b5f1e5c7aa67a282ddb2fc3486dc81d7e28701fee3282050e9060200160405180910390a16008805461ffff909216600160a01b0261ffff60a01b19909216919091179055506200071f9050565b60408051600481526024810182526020810180516001600160e01b031663313ce56760e01b17905290516000918291829182916001600160a01b03871691620002be91620006e7565b600060405180830381855afa9150503d8060008114620002fb576040519150601f19603f3d011682016040523d82523d6000602084013e62000300565b606091505b50915091508180156200031557506020815110155b156200034d5760008180602001905181019062000333919062000705565b905060ff81116200034b576001969095509350505050565b505b5060009485945092505050565b600580546001600160a01b038381166001600160a01b0319831681179093556040519116919082907f8be0079c531659141344cd1fd0a4f28419497f9722a3daafe3b4186f6b6457e090600090a35050565b6001600160a01b0381168114620003c257600080fd5b50565b600080600060608486031215620003db57600080fd5b8351620003e881620003ac565b6020850151909350620003fb81620003ac565b604085015190925061ffff811681146200041457600080fd5b809150509250925092565b634e487b7160e01b600052604160045260246000fd5b60005b838110156200045257818101518382015260200162000438565b50506000910152565b6000602082840312156200046e57600080fd5b81516001600160401b03808211156200048657600080fd5b818401915084601f8301126200049b57600080fd5b815181811115620004b057620004b06200041f565b604051601f8201601f19908116603f01168101908382118183101715620004db57620004db6200041f565b81604052828152876020848701011115620004f557600080fd5b6200050883602083016020880162000435565b979650505050505050565b6c0283937ba32b1ba37b930ba329609d1b8152600082516200053d81600d85016020870162000435565b6d0813195b991a5b99c815985d5b1d60921b600d939091019283015250601b01919050565b600082516200057681846020870162000435565b6316a8262b60e11b920191825250600401919050565b600181811c90821680620005a157607f821691505b602082108103620005c257634e487b7160e01b600052602260045260246000fd5b50919050565b601f8211156200061657600081815260208120601f850160051c81016020861015620005f15750805b601f850160051c820191505b818110156200061257828155600101620005fd565b5050505b505050565b81516001600160401b038111156200063757620006376200041f565b6200064f816200064884546200058c565b84620005c8565b602080601f8311600181146200068757600084156200066e5750858301515b600019600386901b1c1916600185901b17855562000612565b600085815260208120601f198616915b82811015620006b85788860151825594840194600190910190840162000697565b5085821015620006d75787850151600019600388901b60f8161c191681555b5050505050600190811b01905550565b60008251620006fb81846020870162000435565b9190910192915050565b6000602082840312156200071857600080fd5b5051919050565b60805160a0516123d2620007766000396000610a310152600081816103900152818161077a0152818161089b01528181610c7501528181610ed9015281816110b3015281816119eb0152611aab01526123d26000f3fe608060405234801561001057600080fd5b50600436106102a05760003560e01c8063715018a611610167578063b3d7f6b9116100ce578063d905777e11610087578063d905777e14610607578063dd62ed3e1461061a578063deefd8621461062d578063ed27f7c914610640578063ef8b30f7146105e1578063f2fde38b1461065357600080fd5b8063b3d7f6b9146105a8578063b460af94146105bb578063ba087652146105ce578063c63d75b614610430578063c6e6f592146105e1578063ce96cb77146105f457600080fd5b806394bf804d1161012057806394bf804d1461054b57806395d89b411461055e5780639e9b0ffc14610566578063a457c2d71461056f578063a9059cbb14610582578063aaa4a2441461059557600080fd5b8063715018a6146104dc57806373303e1f146104e45780638163b04d146104f75780638456cb591461050a57806387788782146105125780638da5cb5b1461053a57600080fd5b8063395093511161020b5780634cdad506116101c45780634cdad506146102d55780635c975abb146104685780636a5f1aa21461047a5780636e553f651461048d578063703bcbb2146104a057806370a08231146104b357600080fd5b806339509351146103c85780633de4ff8e146103db5780633e406376146103e45780633f4ba83a14610428578063402d267d1461043057806346fbf68e1461044557600080fd5b8063175188e81161025d578063175188e81461033357806318160ddd14610346578063223e54791461034e57806323b872dd14610361578063313ce5671461037457806338d52e0f1461038e57600080fd5b806301e1d114146102a557806306fdde03146102c057806307a2d13a146102d5578063095ea7b3146102e85780630a28a4771461030b5780630c69ca971461031e575b600080fd5b6102ad610666565b6040519081526020015b60405180910390f35b6102c8610682565b6040516102b79190611fbf565b6102ad6102e3366004611ff2565b610714565b6102fb6102f6366004612027565b610727565b60405190151581526020016102b7565b6102ad610319366004611ff2565b61073f565b61033161032c366004611ff2565b61074c565b005b610331610341366004612051565b610934565b6002546102ad565b61033161035c366004612051565b61098b565b6102fb61036f36600461206c565b610a03565b61037c610a29565b60405160ff90911681526020016102b7565b7f00000000000000000000000000000000000000000000000000000000000000005b6040516001600160a01b0390911681526020016102b7565b6102fb6103d6366004612027565b610a55565b6102ad60065481565b6104116103f2366004612051565b600a602052600090815260409020805460019091015460ff9091169082565b6040805192151583526020830191909152016102b7565b610331610a77565b6102ad61043e366004612051565b5060001990565b6102fb610453366004612051565b60096020526000908152604090205460ff1681565b600554600160a01b900460ff166102fb565b610331610488366004612051565b610a89565b6102ad61049b3660046120a8565b610aef565b6103316104ae3660046120d4565b610b03565b6102ad6104c1366004612051565b6001600160a01b031660009081526020819052604090205490565b610331610b8b565b6103316104f2366004611ff2565b610b9d565b610331610505366004612051565b610c9d565b610331610cfd565b60085461052790600160a01b900461ffff1681565b60405161ffff90911681526020016102b7565b6005546001600160a01b03166103b0565b6102ad6105593660046120a8565b610d4a565b6102c8610d5e565b6102ad60075481565b6102fb61057d366004612027565b610d6d565b6102fb610590366004612027565b610df8565b6103316105a3366004612051565b610e06565b6102ad6105b6366004611ff2565b610e62565b6102ad6105c93660046120f8565b610e6f565b6102ad6105dc3660046120f8565b610e8c565b6102ad6105ef366004611ff2565b610ea1565b6102ad610602366004612051565b610eae565b6102ad610615366004612051565b610f71565b6102ad610628366004612134565b610f8f565b61033161063b366004611ff2565b610fba565b6008546103b0906001600160a01b031681565b610331610661366004612051565b611022565b600060065461067361109b565b61067d9190612174565b905090565b60606003805461069190612187565b80601f01602080910402602001604051908101604052809291908181526020018280546106bd90612187565b801561070a5780601f106106df5761010080835404028352916020019161070a565b820191906000526020600020905b8154815290600101906020018083116106ed57829003601f168201915b5050505050905090565b6000610721826000611126565b92915050565b600033610735818585611160565b5060019392505050565b6000610721826001611284565b8060000361076d5760405163162908e360e11b815260040160405180910390fd5b6107a26001600160a01b037f0000000000000000000000000000000000000000000000000000000000000000163330846112b4565b60405181815233907f9f7dc20f179b7071385ff9e94ef0ed71af94183a81e621d1bcccf6e38cba96029060200160405180910390a260065481111561091a576000600654826107f191906121c1565b90506000806107ff83611325565b915091508060001461085657806007600082825461081d91906121c1565b90915550506040518181527f9abf439de3f3eaf6a939d762de41823a8d54a8e9512f1af2d36936c12a0efdaf9060200160405180910390a15b811561090f576008546000906127109061087b90600160a01b900461ffff16856121d4565b6108859190612201565b6008549091506108cb906001600160a01b0316827f00000000000000000000000000000000000000000000000000000000000000005b6001600160a01b0316919061136a565b6008546040518281526001600160a01b03909116907f2a7e5d2deac3f9f602c7e7830f5fd8d06c6ceb690d1ebfe6ff45e9078a26fba59060200160405180910390a2505b505060006006555050565b806006600082825461092c91906121c1565b909155505050565b61093c61139f565b6001600160a01b0381166000818152600a6020526040808220805460ff19168155600101829055517fd3281a40d50ae838fe77dc627744037b8f0fc6a5711d66119a9b670c5cde41af9190a250565b61099361139f565b60408051808201825260018082524260208084019182526001600160a01b0386166000818152600a9092528582209451855460ff191690151517855591519390920192909255915190917f69887873d46778fb35539b0a9992d9176ca03c1820b0afb538bc3a6f63326b1091a250565b600033610a118582856113f9565b610a1c85858561146d565b60019150505b9392505050565b600061067d817f0000000000000000000000000000000000000000000000000000000000000000612223565b600033610735818585610a688383610f8f565b610a729190612174565b611160565b610a7f61139f565b610a87611611565b565b610a9161139f565b6040516001600160a01b03821681527fe59cc3d47f72dbd81f7d5fc40b9b05d9c4374a54addea771648ae24943c26e769060200160405180910390a1600880546001600160a01b0319166001600160a01b0392909216919091179055565b6000610af9611666565b610a2283836116b3565b610b0b61139f565b6107d061ffff82161115610b32576040516358d620b360e01b815260040160405180910390fd5b60405161ffff821681527f8e9d63fb76e0218b5f1e5c7aa67a282ddb2fc3486dc81d7e28701fee3282050e9060200160405180910390a16008805461ffff909216600160a01b0261ffff60a01b19909216919091179055565b610b9361139f565b610a8760006116cd565b80600003610bbe5760405163162908e360e11b815260040160405180910390fd5b336000908152600a60205260409020805460ff16610bef57604051632711b74d60e11b815260040160405180910390fd5b62069780816001015442610c0391906121c1565b1015610c225760405163bb703b9f60e01b815260040160405180910390fd5b8160066000828254610c349190612174565b909155505060405182815233907f6c704fb9d54f64b01bae7a4940ee85bb1a8cceabd6405c270fd9b19d49a310609060200160405180910390a2610c9933837f00000000000000000000000000000000000000000000000000000000000000006108bb565b5050565b610ca561139f565b6001600160a01b038116600081815260096020908152604091829020805460ff1916905590519182527faf13d8f08e1691dc9c51b23aee50a98ed4d2f06ddde02f741d969c829346e76791015b60405180910390a150565b3360009081526009602052604090205460ff1680610d2557506005546001600160a01b031633145b610d425760405163ca724b4360e01b815260040160405180910390fd5b610a8761171f565b6000610d54611666565b610a228383611762565b60606004805461069190612187565b60003381610d7b8286610f8f565b905083811015610de05760405162461bcd60e51b815260206004820152602560248201527f45524332303a2064656372656173656420616c6c6f77616e63652062656c6f77604482015264207a65726f60d81b60648201526084015b60405180910390fd5b610ded8286868403611160565b506001949350505050565b60003361073581858561146d565b610e0e61139f565b6001600160a01b038116600081815260096020908152604091829020805460ff1916600117905590519182527f4f68150eb56c53cc9373649e35bc37dd235a0c86e10aa23b8a835378136ac6a09101610cf2565b6000610721826001611126565b6000610e79611666565b610e8484848461177c565b949350505050565b6000610e96611666565b610e848484846117f0565b6000610721826000611284565b600080610ed36102e3846001600160a01b031660009081526020819052604090205490565b905060007f00000000000000000000000000000000000000000000000000000000000000006040516370a0823160e01b81523060048201526001600160a01b0391909116906370a0823190602401602060405180830381865afa158015610f3e573d6000803e3d6000fd5b505050506040513d601f19601f82011682018060405250810190610f62919061223c565b9050808211610a225781610e84565b6001600160a01b038116600090815260208190526040812054610721565b6001600160a01b03918216600090815260016020908152604080832093909416825291909152205490565b610fc261139f565b8060066000828254610fd491906121c1565b925050819055508060076000828254610fed9190612174565b90915550506040518181527ff122ffd9ce0bdf3ae865b8e71215ba56935ed98cf45506e997c4087ad67f8e1d90602001610cf2565b61102a61139f565b6001600160a01b03811661108f5760405162461bcd60e51b815260206004820152602660248201527f4f776e61626c653a206e6577206f776e657220697320746865207a65726f206160448201526564647265737360d01b6064820152608401610dd7565b611098816116cd565b50565b6040516370a0823160e01b81523060048201526000907f00000000000000000000000000000000000000000000000000000000000000006001600160a01b0316906370a0823190602401602060405180830381865afa158015611102573d6000803e3d6000fd5b505050506040513d601f19601f8201168201806040525081019061067d919061223c565b6000610a22611133610666565b61113e906001612174565b61114a6000600a612339565b6002546111579190612174565b85919085611864565b6001600160a01b0383166111c25760405162461bcd60e51b8152602060048201526024808201527f45524332303a20617070726f76652066726f6d20746865207a65726f206164646044820152637265737360e01b6064820152608401610dd7565b6001600160a01b0382166112235760405162461bcd60e51b815260206004820152602260248201527f45524332303a20617070726f766520746f20746865207a65726f206164647265604482015261737360f01b6064820152608401610dd7565b6001600160a01b0383811660008181526001602090815260408083209487168084529482529182902085905590518481527f8c5be1e5ebec7d5bd14f71427d1e84f3dd0314c0f7b2291e5b200ac8c7c3b925910160405180910390a3505050565b6000610a2261129482600a612339565b6002546112a19190612174565b6112a9610666565b611157906001612174565b6040516001600160a01b038085166024830152831660448201526064810182905261131f9085906323b872dd60e01b906084015b60408051601f198184030181529190526020810180516001600160e01b03166001600160e01b0319909316929092179091526118c1565b50505050565b60008060075460000361133b5750909160009150565b826007541061134c57506000929050565b60006007548461135c91906121c1565b600754909590945092505050565b6040516001600160a01b03831660248201526044810182905261139a90849063a9059cbb60e01b906064016112e8565b505050565b6005546001600160a01b03163314610a875760405162461bcd60e51b815260206004820181905260248201527f4f776e61626c653a2063616c6c6572206973206e6f7420746865206f776e65726044820152606401610dd7565b60006114058484610f8f565b9050600019811461131f57818110156114605760405162461bcd60e51b815260206004820152601d60248201527f45524332303a20696e73756666696369656e7420616c6c6f77616e63650000006044820152606401610dd7565b61131f8484848403611160565b6001600160a01b0383166114d15760405162461bcd60e51b815260206004820152602560248201527f45524332303a207472616e736665722066726f6d20746865207a65726f206164604482015264647265737360d81b6064820152608401610dd7565b6001600160a01b0382166115335760405162461bcd60e51b815260206004820152602360248201527f45524332303a207472616e7366657220746f20746865207a65726f206164647260448201526265737360e81b6064820152608401610dd7565b6001600160a01b038316600090815260208190526040902054818110156115ab5760405162461bcd60e51b815260206004820152602660248201527f45524332303a207472616e7366657220616d6f756e7420657863656564732062604482015265616c616e636560d01b6064820152608401610dd7565b6001600160a01b03848116600081815260208181526040808320878703905593871680835291849020805487019055925185815290927fddf252ad1be2c89b69c2b068fc378daa952ba7f163c4a11628f55a4df523b3ef910160405180910390a361131f565b611619611996565b6005805460ff60a01b191690557f5db9ee0a495bf2e6ff9c91a7834c1ba4fdd244a5e8aa4e537bd38aeae4b073aa335b6040516001600160a01b03909116815260200160405180910390a1565b600554600160a01b900460ff1615610a875760405162461bcd60e51b815260206004820152601060248201526f14185d5cd8589b194e881c185d5cd95960821b6044820152606401610dd7565b6000806116bf84610ea1565b9050610a22338486846119e6565b600580546001600160a01b038381166001600160a01b0319831681179093556040519116919082907f8be0079c531659141344cd1fd0a4f28419497f9722a3daafe3b4186f6b6457e090600090a35050565b611727611666565b6005805460ff60a01b1916600160a01b1790557f62e78cea01bee320cd4e420270b5ea74000d11b0c9f74754ebdbfc544b05a2586116493390565b60008061176e84610e62565b9050610a22338483876119e6565b600061178782610eae565b8411156117d65760405162461bcd60e51b815260206004820152601f60248201527f455243343632363a207769746864726177206d6f7265207468616e206d6178006044820152606401610dd7565b60006117e18561073f565b9050610e843385858885611a78565b60006117fb82610f71565b84111561184a5760405162461bcd60e51b815260206004820152601d60248201527f455243343632363a2072656465656d206d6f7265207468616e206d61780000006044820152606401610dd7565b600061185585610714565b9050610e843385858489611a78565b600080611872868686611b38565b9050600183600281111561188857611888612348565b1480156118a55750600084806118a0576118a06121eb565b868809115b156118b8576118b5600182612174565b90505b95945050505050565b6000611916826040518060400160405280602081526020017f5361666545524332303a206c6f772d6c6576656c2063616c6c206661696c6564815250856001600160a01b0316611c229092919063ffffffff16565b9050805160001480611937575080806020019051810190611937919061235e565b61139a5760405162461bcd60e51b815260206004820152602a60248201527f5361666545524332303a204552433230206f7065726174696f6e20646964206e6044820152691bdd081cdd58d8d9595960b21b6064820152608401610dd7565b600554600160a01b900460ff16610a875760405162461bcd60e51b815260206004820152601460248201527314185d5cd8589b194e881b9bdd081c185d5cd95960621b6044820152606401610dd7565b611a127f00000000000000000000000000000000000000000000000000000000000000008530856112b4565b611a1c8382611c31565b826001600160a01b0316846001600160a01b03167fdcbc1c05240f31ff3ad067ef1ee35ce4997762752e3a095284754544f4c709d78484604051611a6a929190918252602082015260400190565b60405180910390a350505050565b826001600160a01b0316856001600160a01b031614611a9c57611a9c8386836113f9565b611aa68382611cf0565b611ad17f0000000000000000000000000000000000000000000000000000000000000000858461136a565b826001600160a01b0316846001600160a01b0316866001600160a01b03167ffbde797d201c681b91056529119e0b02407c7bb96a4a2c75c01fc9667232c8db8585604051611b29929190918252602082015260400190565b60405180910390a45050505050565b6000808060001985870985870292508281108382030391505080600003611b7257838281611b6857611b686121eb565b0492505050610a22565b808411611bb95760405162461bcd60e51b81526020600482015260156024820152744d6174683a206d756c446976206f766572666c6f7760581b6044820152606401610dd7565b60008486880960026001871981018816978890046003810283188082028403028082028403028082028403028082028403028082028403029081029092039091026000889003889004909101858311909403939093029303949094049190911702949350505050565b6060610e848484600085611e22565b6001600160a01b038216611c875760405162461bcd60e51b815260206004820152601f60248201527f45524332303a206d696e7420746f20746865207a65726f2061646472657373006044820152606401610dd7565b8060026000828254611c999190612174565b90915550506001600160a01b038216600081815260208181526040808320805486019055518481527fddf252ad1be2c89b69c2b068fc378daa952ba7f163c4a11628f55a4df523b3ef910160405180910390a35050565b6001600160a01b038216611d505760405162461bcd60e51b815260206004820152602160248201527f45524332303a206275726e2066726f6d20746865207a65726f206164647265736044820152607360f81b6064820152608401610dd7565b6001600160a01b03821660009081526020819052604090205481811015611dc45760405162461bcd60e51b815260206004820152602260248201527f45524332303a206275726e20616d6f756e7420657863656564732062616c616e604482015261636560f01b6064820152608401610dd7565b6001600160a01b0383166000818152602081815260408083208686039055600280548790039055518581529192917fddf252ad1be2c89b69c2b068fc378daa952ba7f163c4a11628f55a4df523b3ef910160405180910390a3505050565b606082471015611e835760405162461bcd60e51b815260206004820152602660248201527f416464726573733a20696e73756666696369656e742062616c616e636520666f6044820152651c8818d85b1b60d21b6064820152608401610dd7565b600080866001600160a01b03168587604051611e9f9190612380565b60006040518083038185875af1925050503d8060008114611edc576040519150601f19603f3d011682016040523d82523d6000602084013e611ee1565b606091505b5091509150611ef287838387611efd565b979650505050505050565b60608315611f6c578251600003611f65576001600160a01b0385163b611f655760405162461bcd60e51b815260206004820152601d60248201527f416464726573733a2063616c6c20746f206e6f6e2d636f6e74726163740000006044820152606401610dd7565b5081610e84565b610e848383815115611f815781518083602001fd5b8060405162461bcd60e51b8152600401610dd79190611fbf565b60005b83811015611fb6578181015183820152602001611f9e565b50506000910152565b6020815260008251806020840152611fde816040850160208701611f9b565b601f01601f19169190910160400192915050565b60006020828403121561200457600080fd5b5035919050565b80356001600160a01b038116811461202257600080fd5b919050565b6000806040838503121561203a57600080fd5b6120438361200b565b946020939093013593505050565b60006020828403121561206357600080fd5b610a228261200b565b60008060006060848603121561208157600080fd5b61208a8461200b565b92506120986020850161200b565b9150604084013590509250925092565b600080604083850312156120bb57600080fd5b823591506120cb6020840161200b565b90509250929050565b6000602082840312156120e657600080fd5b813561ffff81168114610a2257600080fd5b60008060006060848603121561210d57600080fd5b8335925061211d6020850161200b565b915061212b6040850161200b565b90509250925092565b6000806040838503121561214757600080fd5b6121508361200b565b91506120cb6020840161200b565b634e487b7160e01b600052601160045260246000fd5b808201808211156107215761072161215e565b600181811c9082168061219b57607f821691505b6020821081036121bb57634e487b7160e01b600052602260045260246000fd5b50919050565b818103818111156107215761072161215e565b80820281158282048414176107215761072161215e565b634e487b7160e01b600052601260045260246000fd5b60008261221e57634e487b7160e01b600052601260045260246000fd5b500490565b60ff81811683821601908111156107215761072161215e565b60006020828403121561224e57600080fd5b5051919050565b600181815b808511156122905781600019048211156122765761227661215e565b8085161561228357918102915b93841c939080029061225a565b509250929050565b6000826122a757506001610721565b816122b457506000610721565b81600181146122ca57600281146122d4576122f0565b6001915050610721565b60ff8411156122e5576122e561215e565b50506001821b610721565b5060208310610133831016604e8410600b8410161715612313575081810a610721565b61231d8383612255565b80600019048211156123315761233161215e565b029392505050565b6000610a2260ff841683612298565b634e487b7160e01b600052602160045260246000fd5b60006020828403121561237057600080fd5b81518015158114610a2257600080fd5b60008251612392818460208701611f9b565b919091019291505056fea2646970667358221220bc8971ada0ff3963926e0c781e916d90444534016b782faaaaefb549a35cd2ac64736f6c63430008130033",
    "linkReferences": {}
  },
  "methodIdentifiers": {
    "addStrategy(address)": "223e5479",
    "adjustPerformanceFee(uint16)": "703bcbb2",
    "allowance(address,address)": "dd62ed3e",
    "approve(address,uint256)": "095ea7b3",
    "asset()": "38d52e0f",
    "balanceOf(address)": "70a08231",
    "convertToAssets(uint256)": "07a2d13a",
    "convertToShares(uint256)": "c6e6f592",
    "decimals()": "313ce567",
    "decreaseAllowance(address,uint256)": "a457c2d7",
    "deposit(uint256,address)": "6e553f65",
    "grantPausingRole(address)": "aaa4a244",
    "increaseAllowance(address,uint256)": "39509351",
    "incurredLosses()": "9e9b0ffc",
    "isPauser(address)": "46fbf68e",
    "isStrategyApproved(address)": "3e406376",
    "maxDeposit(address)": "402d267d",
    "maxMint(address)": "c63d75b6",
    "maxRedeem(address)": "d905777e",
    "maxWithdraw(address)": "ce96cb77",
    "mint(uint256,address)": "94bf804d",
    "name()": "06fdde03",
    "owner()": "8da5cb5b",
    "pause()": "8456cb59",
    "paused()": "5c975abb",
    "performanceFee()": "87788782",
    "performanceFeeRecipient()": "ed27f7c9",
    "previewDeposit(uint256)": "ef8b30f7",
    "previewMint(uint256)": "b3d7f6b9",
    "previewRedeem(uint256)": "4cdad506",
    "previewWithdraw(uint256)": "0a28a477",
    "redeem(uint256,address,address)": "ba087652",
    "removeStrategy(address)": "175188e8",
    "renounceOwnership()": "715018a6",
    "replenishAssets(uint256)": "0c69ca97",
    "requestAssets(uint256)": "73303e1f",
    "revokePausingRole(address)": "8163b04d",
    "setPerformanceFeeRecipient(address)": "6a5f1aa2",
    "symbol()": "95d89b41",
    "totalAssets()": "01e1d114",
    "totalAssetsAllocatedInStrategies()": "3de4ff8e",
    "totalSupply()": "18160ddd",
    "transfer(address,uint256)": "a9059cbb",
    "transferFrom(address,address,uint256)": "23b872dd",
    "transferOwnership(address)": "f2fde38b",
    "unpause()": "3f4ba83a",
    "withdraw(uint256,address,address)": "b460af94",
    "writeOffLosses(uint256)": "deefd862"
  },
  "id": 42
}